:020000020000FC
:040000000C94340028
:040040000C943701E4
:10006800D2E0C0E300E0A02E60E0699361E069930C
:1000780062E0699363E0688304E0902ED1E0C0E118
:1000880060E0699360E0699360E0699360E0699378
:1000980060E0699360E0699360E0699360E0688379
:1000A80000E600937C0007E800937A000FEF04B99C
:1000B8000FEC07B90FEF0AB9D2E0C0E008E00EBFB5
:1000C8000FEF0DBFA3D0E5D001D155D0D1E0C0E1ED
:1000D8006A2D699360E0699360E0699360E06993D1
:1000E80060E0699360E0699360E0699360E0688329
:1000F800D1E0C0E111E000E00C948900110F0C94EC
:10010800890010E004E001C0000F50E040E030E05A
:100118006881862F0E943B01682F660F660F660F65
:10012800660F660F660F562B502B6881862F0E942C
:100138003B01682F66956695362B412B35B948B932
:100148005BB984E113D030E040E050E035B948B9FC
:100158005BB981E00BD0C73111F40C946600CF5F16
:10016800043090F6183068F60C94820070E07F5FD7
:100178007817E9F7089503E0A02ED1E0C8E10881D7
:100188001A0D103031F0113071F01230C9F01330FF
:1001980009F110EF10232FE020232F5F283059F5A5
:1001A80020E00C94FF002FE02023102F16951695C1
:1001B8001695169511501F3FD1F417E00C94FB00CB
:1001C80010EF10232FE0202321502F3FA1F427E028
:1001D8000C94FF002FE02023102F169516951695E6
:1001E80016951F5F183019F410E00C94FB00110FDE
:1001F800110F110F110F120F292D1993102F0881AC
:100208001993102F21502130D1F70895D2E0C0E280
:1002180060E0699360E0699360E0699360E06993E6
:1002280060E0699360E0699360E0699360E06883E7
:10023800B1E0A8E160E0D1E0C0E10C911FE010233B
:100248000695069506950695C10F20E802C001504F
:1002580026950030E1F71881122B18836F5FAF5F86
:10026800691549F708950F2D0F5FF02E1895282F5F
:1002780020FB87F921FB86F922FB85F923FB84F90A
:1002880024FB83F925FB82F926FB81F927FB80F9FA
:10029800089500917C00007F056000937C00009128
:1002A8007A00006400937A0000917A0006FD0C94AD
:1002B800580100917900073E18F4093120F008959B
:1002C80003E0A02E089501E0A02E089500917C007F
:1002D800007F046000937C0000917A000064009322
:1002E8007A0000917A0006FD0C947501009179005E
:1002F800073E18F4093120F0089500E0A02E089573
:0603080002E0A02E0895A2
:00000001FF
