:020000020000FC
:040000000C94340028
:0600400078940C943301DA
:10006800D1E0C8E100E0A02E60E1699361E1699305
:1000780062E1699363E16883002404E0902E05E55A
:10008800802ED1E0C0E160E0699360E0699360E0B0
:10009800699360E0699360E0699360E0699360E068
:1000A800699360E0688300E600937C0007E80093AA
:1000B8007A000FEF04B90FEC07B90FEF0AB9002D5A
:1000C80005E005BD789401E000936E00D2E0C0E041
:1000D80008E00EBF0FEF0DBF03E0A022F02C00E0F8
:1000E80010E020E047D095D014D1A2FECED0A2FED9
:1000F800EED0D1E0C0E111E000E02CE0F21660F7AC
:100108000C948D00110F0C948D0010E004E001C0D8
:10011800000F50E040E030E06881862F0E943701F0
:10012800682F660F660F660F660F660F660F562BF1
:10013800502B6881862F0E943701682F6695669537
:10014800362B412B35B948B95BB98FEF0ED005B8BE
:1001580008B80BB8C73111F40C947900CF5F04309C
:10016800B8F6183090F60C94860060E06F5F681758
:10017800E9F70895D1E0C8E108811A2D137010300D
:10018800E9F0113029F1123011F0133051F010EF6D
:1001980010232FE020232F5F283059F520E00C94FE
:1001A800FD002FE02023102F16951695169516950D
:1001B80011501F3FD1F417E00C94F90010EF1023F1
:1001C8002FE0202321502F3FA1F427E00C94FD00BD
:1001D8002FE02023102F16951695169516951F5F5C
:1001E800183019F410E00C94F900110F110F110FC9
:1001F800110F120F292D1993712E102F08811993A1
:10020800711611F40C943400102F21502130B1F7DD
:100218000895D1E0C0E1662769936993699369936A
:100228006993699369936883B1E0A8E160E0C0E1EC
:10023800D1E00C911FE010230695069506950695CA
:10024800C10F20E802C0015026950030E1F718815F
:10025800122B18836F5FAF5F691549F708957F2DDB
:100268007F5FF72E1895282F20FB87F921FB86F949
:1002780022FB85F923FB84F924FB83F925FB82F90A
:1002880026FB81F927FB80F9089500917C00007F07
:10029800056000937C0000917A00006400937A0066
:1002A80000917A0006FD0C945401009179001A2DF2
:1002B800113011F00C3928F4133011F0043620F005
:1002C800089507E0A02E089505E0A02E0895009156
:1002D8007C00007F046000937C0000917A00006439
:1002E80000937A0000917A0006FD0C947601009143
:1002F80079001A2D123011F00C3928F4103011F051
:10030800043620F0089504E0A02E089506E0A02EFB
:10031800089504E0B02EC0E1D1E021E011E02B15F2
:10032800C8F00881110F212F1023101591F7202BE9
:100338000883C02E04E0C0E1D1E021E011E02C15D3
:1003480070F0110F0881212F1023101591F7202B21
:10035800288308950991110F2F5F0C949301099137
:08036800110F2F5F0C94A3019B
:00000001FF
