:020000020000FC
:040000000C94340028
:10006800D2E0C0E070E079937EE1799370E1799312
:1000780070E1799370E3799370E0799370E0799304
:1000880070E0788300E600937C0007E800937A002C
:1000980000917C00047000937C000FEF04B90FEC12
:1000A80007B90FEF0AB908E00EBF0FEF0DBFD2E096
:1000B800C7E011E000E00C946800110F0C94680090
:1000C80010E004E001C0000F7881770F770F770FF9
:1000D800770F770F770F672B602B7881769576955A
:1000E800472B512B45B958B96BB99AE013D040E06A
:1000F80050E060E045B958B96BB991E00BD0C03019
:1001080011F40C945B00C1500430E8F61830C0F6C6
:0E0118000C94610080E08F5F8917E9F708956D
:00000001FF
