:020000020000FC
:040000000C94340028
:040040000C94E0003C
:10006800D2E0C0E364E3699363E3699363E469936B
:1000780063E5688304E0902ED2E0C0E260E0699313
:1000880060E0699360E1699360E0699360E1699376
:1000980060E0699360E0699360E0688300E600933C
:1000A8007C0007E800937A000FEF04B90FEC07B95A
:1000B8000FEF0AB9002D05E005BD789401E0009323
:1000C8006E00D2E0C0E008E00EBF0FEF0DBFD2E037
:1000D800C0E2D2E0C0E211E000E00C947A00110F17
:1000E8000C947A0010E004E001C0000F50E040E0FA
:1000F80030E06881862F0E94E400682F660F660F43
:10010800660F660F660F660F562B502B6881862F79
:100118000E94E400682F66956695362B412B35B909
:1001280048B95BB984E114D030E040E050E035B91B
:1001380048B95BB981E00CD023D0C73211F40C94D4
:100148006B00CF5F043088F6183060F60C947300AB
:1001580070E07F5F7817E9F70895D2E0C0E260E0C9
:10016800699360E1699360E0699364E0699360E092
:10017800699360E0699360E0699360E0688308953B
:10018800ECDFB2E0A0E360E0D2E0C0E20C911FE057
:1001980010230695069506950695C10F202F01E0B8
:1001A8002150000F2030E1F71881102B18836F5F62
:1001B800AF5F691549F708950F2D0F5FF02E189559
:1001C800282F20FB87F921FB86F922FB85F923FBE1
:1001D80084F924FB83F925FB82F926FB81F927FBA7
:1001E80080F9089500917C00007F082B80E000933F
:1001F8007C0000917A00006400937A0081E0A8DF17
:0C02080000917A0006FD0C94020108959C
:00000001FF
