:020000020000FC
:040000000C94340028
:0600400078940C943F01CE
:10006800D1E0C8E100E0A02E60E1699361E1699305
:1000780062E1699363E16883002404E0902ED1E093
:10008800C0E160E0699360E0699360E0699360E0D3
:10009800699360E0699360E0699360E0699360E068
:1000A800688300E600937C0007E800937A000FEF6E
:1000B80004B90FEC07B90FEF0AB9002D05E005BD2B
:1000C800789401E000936E0008E00EBF0FEF0DBFBB
:1000D80003E0A022F02C00E010E020E00C94B70030
:1000E800A2D029D1A2FEE3D0A2FE03D1D1E0C0E183
:1000F80011E000E020E1F21658F70C948A00110F85
:100108000C948A0010E004E001C0000F50E040E0C9
:1001180030E06881862F0E944901682F660F660FBC
:10012800660F660F660F660F562B502B682F669565
:100138006695362B412B35B948B95BB98FEF0ED090
:1001480005B808B80BB8C73111F40C947600CF5F26
:100158000430D8F61830B0F60C94830060E06F5F76
:100168006817E9F70895D1E0C8E108811A2D1370DE
:100178001030E9F0113029F1123011F0133051F03C
:1001880010EF10232FE020232F5F283059F520E0AF
:100198000C94F6002FE02023102F1695169516952F
:1001A800169511501F3FD1F417E00C94F20010EF90
:1001B80010232FE0202321502F3FA1F427E00C9497
:1001C800F6002FE02023102F1695169516951695F4
:1001D8001F5F183019F410E00C94F200110F110F82
:1001E800110F110F120F292D1993712E102F08813D
:1001F8001993711611F40C943400102F21502130EA
:10020800B1F70B2D2C2D000F000F000F000F022B44
:1002180027E702237222071521F401E0900E1993B3
:100228009FD00C947400D1E0C0E1009125006627AE
:1002380069936993699369936993699369936883E7
:10024800B1E0A8E160E0C0E1D1E00C911FE010232B
:100258000695069506950695C10F20E802C001503F
:1002680026950030E1F71881122B18836F5FAF5F76
:10027800691549F70895762D7D5F713408F4715436
:10028800672E7F2D7F5FF72E1895282F20FB87F983
:1002980021FB86F922FB85F923FB84F924FB83F9EA
:1002A80025FB82F926FB81F927FB80F90895009147
:1002B8007C00007F056000937C0000917A00006458
:1002C80000937A0000917A0006FD0C946601009173
:1002D80079001A2D113011F00C3928F4133011F06F
:1002E800043620F0089507E0A02E089505E0A02E1A
:1002F800089500917C00007F046000937C000091C9
:100308007A00006400937A0000917A0006FD0C944C
:100318008801009179001A2D123011F00C3928F457
:10032800103011F0043620F0089504E0A02E08954E
:1003380006E0A02E089520E010E82B1578F1C0E122
:10034800D1E020E02C1570F10881102B1883089556
:1003580016952F5F0C94A10109912F5F0C94A601AB
:1003680007E00621402E08E30621502E56945694A5
:100378005694042DB02E20E010E82B1578F0052DAA
:10038800C02EC0E1D1E020E02C1560F0212F0881BB
:100398001023101529F7202B2883089516952F5F11
:0C03A8000C94C10109912F5F0C94C80156
:00000001FF
