:020000020000FC
:040000000C94340028
:10006800D2E0C0E060E8699361E0699360E3699376
:1000780060E0699361E0699360E2699364E0699381
:1000880068E068831FE314B91FEC17B91FEF1AB9AA
:1000980008E00EBF0FEF0DBFD2E0C7E011E000E0AF
:1000A8000C945C00110F0C945C0010E004E0000F4D
:1000B8006881660F660F660F660F660F660F562B10
:1000C800502B688166956695362B412B35B948B912
:1000D8005BB984E611D030E040E050E035B948B96A
:1000E8005BB981E009D0C030B9F2C1500430F8F6EC
:1000F8001830D8F60C94560070E07F5F7817E9F74F
:02010800089558
:00000001FF
