:020000020000FC
:040000000C94340028
:0600400078940C942C01E1
:10006800D1E0C8E100E0A02E60E0699361E0699307
:1000780062E0699363E0688300E0002E04E0902E5C
:10008800D1E0C0E160E0699360E0699360E0699362
:1000980060E0699360E0699360E0699360E0699368
:1000A80060E0688300E600937C0007E800937A002C
:1000B8000FEF04B90FEC07B90FEF0AB9002D05E0EF
:1000C80005BD789401E000936E00D2E0C0E008E03E
:1000D8000EBF0FEF0DBF03E0A022F02C00E010E0F0
:1000E80020E046D08FD0A2FEC9D0A2FEE9D0D1E050
:1000F800C0E111E000E02CE0F21668F70C948B00E8
:10010800110F0C948B0010E004E001C0000F50E0C8
:1001180040E030E06881862F0E943001682F660F2A
:10012800660F660F660F660F660F562B502B688199
:10013800862F0E943001682F66956695362B412BD5
:1001480035B948B95BB98FEF0ED005B808B80BB808
:10015800C73111F40C947700CF5F0430B8F618302B
:1001680090F60C94840060E06F5F6817E9F70895D3
:10017800D1E0C8E108811A2D13701030E9F0113070
:1001880029F1123011F0133051F010EF10232FE045
:1001980020232F5F283059F520E00C94FB002FE036
:1001A8002023102F169516951695169511501F3F5A
:1001B800D1F417E00C94F70010EF10232FE0202360
:1001C80021502F3FA1F427E00C94FB002FE02023BF
:1001D800102F16951695169516951F5F183019F459
:1001E80010E00C94F700110F110F110F110F120FDF
:1001F800292D1993102F08811993102F2150213080
:10020800D1F70895D1E0C0E16627699369936993AE
:1002180069936993699369936883B1E0A8E160E0A1
:10022800C0E1D1E00C911FE01023069506950695D4
:100238000695C10F20E802C0015026950030E1F76D
:100248001881122B18836F5FAF5F691549F70895FE
:100258007F2D7F5FF72E1895282F20FB87F921FB2C
:1002680086F922FB85F923FB84F924FB83F925FB16
:1002780082F926FB81F927FB80F9089500917C001B
:10028800007F056000937C0000917A000064009371
:100298007A0000917A0006FD0C944D0100917900D6
:1002A8001A2D113011F00C3928F4133011F00436DE
:1002B80020F0089507E0A02E089505E0A02E0895E7
:1002C80000917C00007F046000937C0000917A001C
:1002D800006400937A0000917A0006FD0C946F0187
:1002E800009179001A2D123011F00C3928F41030D1
:1002F80011F0043620F0089504E0A02E089506E0D9
:04030800A02E089586
:00000001FF
