:020000020000FC
:040000000C94340028
:02004000189511
:10006800D2E0C0E364E2699364E3699364E469936A
:1000780064E5688304E0902ED2E0C0E260E869930A
:1000880061E0699360E3699360E0699361E0699373
:1000980060E2699364E0699368E068831FE314B9D8
:1000A8001FEC17B91FEF1AB905E005BD789401E0F8
:1000B80000936E00D2E0C0E05AEA588308E00EBF11
:1000C8000FEF0DBFD2E0C7E211E000E00C94720020
:1000D800110F0C94720010E004E0000F6881660FA5
:1000E800660F660F660F660F660F562B502B6881DA
:1000F80066956695362B412B35B948B95BB984E6C8
:1001080011D030E040E050E035B948B95BB981E042
:1001180009D0C032B9F2C1500430F8F61830D8F618
:100128000C946C0070E07F5F7817E9F70895D2E0CF
:10013800C0E308811A0D103031F0113021F012306F
:0601480011F0133001F07C
:00000001FF
