:020000020000FC
:040000000C94340028
:10006800D2E0C0E060E8699361E0699360E3699376
:1000780060E0699361E0699360E2699364E0699381
:1000880068E068831FE314B91FEC17B91FEF1AB9AA
:1000980008E00EBF0FEF0DBF00E0D2E0C7E011E0AF
:1000A80000E002C0110F00C06881660F660F660F7E
:1000B800660F660F660F562B502B688166956695FE
:1000C800362B412B35B948B95BB984E60ED0C03020
:1000D80021F3183010F7C15030E040E050E035B956
:1000E80048B95BB981E001D0E8F670E07F5F781726
:0400F800E9F7089587
:00000001FF
