:020000020000FC
:040000000C94340028
:0600400078940C946F009F
:10006800D1E0C8E100E0A02E60E0699361E0699307
:1000780062E0699363E0688300E0002E04E0902E5C
:10008800D1E0C0E160E0699360E0699360E0699362
:1000980060E0699360E0699360E0699360E0699368
:1000A80060E0688300E600937C0007E800937A002C
:1000B8000FEF04B90FEC07B90FEF0AB9002D05E0EF
:1000C80005BD789401E000936E00D2E0C0E008E03E
:1000D8000EBF0FEF0DBFC9D0E5D000E010E020E063
:1000E8003FD087D0D1E0C0E111E000E00C9483005C
:1000F800110F0C94830010E004E001C0000F50E0E1
:1001080040E030E06881862F0E942701682F660F43
:10011800660F660F660F660F660F562B502B6881A9
:10012800862F0E942701682F66956695362B412BEE
:1001380035B948B95BB98FEF0ED005B808B80BB818
:10014800C73111F40C947600CF5F0430B8F618303C
:1001580090F60C947C0060E06F5F6817E9F70895EB
:10016800D1E0C8E108811A2D103031F0113071F05A
:100178001230C9F0133009F110EF10232FE02023BB
:100188002F5F283059F520E00C94F2002FE020234F
:10019800102F169516951695169511501F3FD1F4E8
:1001A80017E00C94EE0010EF10232FE020232150CD
:1001B8002F3FA1F427E00C94F2002FE02023102F0A
:1001C80016951695169516951F5F183019F410E0B8
:1001D8000C94EE00110F110F110F110F120F292D92
:1001E8001993102F08811993102F21502130D1F71E
:1001F8000895D1E0C0E1662769936993699369938B
:100208006993699369936883B1E0A8E160E0C0E10C
:10021800D1E00C911FE010230695069506950695EA
:10022800C10F20E802C0015026950030E1F718817F
:10023800122B18836F5FAF5F691549F708950F2D6B
:100248000F5FF02E1895282F20FB87F921FB86F9E0
:1002580022FB85F923FB84F924FB83F925FB82F92A
:1002680026FB81F927FB80F9089500917C00007F27
:10027800056000937C0000917A00006400937A0086
:1002880000917A0006FD0C94440100917900073E24
:1002980018F4093120F0089503E0A02E089501E034
:1002A800A02E089500917C00007F046000937C00DC
:1002B80000917A00006400937A0000917A0006FDAC
:1002C8000C94610100917900073E18F4093120F07F
:0E02D800089500E0A02E089502E0A02E0895E3
:00000001FF
