:020000020000FC
:040000000C94340028
:10006800D2E0C0E060E8699361E0699360E3699376
:1000780060E0699361E0699360E2699364E0699381
:1000880068E0688308E01FEC17B91FEF1AB91FE38F
:1000980014B90EBF0FEF0DBF00E0D2E0C7E011E0CA
:1000A80000E00C945A00110F0C945A0030E040E024
:1000B80050E06881660F660F660F660F660F660F61
:1000C800562B502B688166956695362B412B35B992
:1000D80048B95BB9C03009F31830F8F6C1500C9430
:0200E8005700BF
:00000001FF
