:020000020000FC
:040000000C94340028
:040040000C941E01FD
:10006800D2E0C0E364E1699364E2699364E369936D
:1000780064E4688304E0902ED2E0C0E260E0699313
:100088006EE1699360E1699360E1699360E3699364
:1000980060E0699360E0699360E0688300E600933C
:1000A8007C0007E800937A000FEF04B90FEC07B95A
:1000B8000FEF0AB9002D05E005BD789401E0009323
:1000C8006E00D2E0C0E008E00EBF0FEF0DBFD2E037
:1000D800C0E200917C00007F046000937C000091E6
:1000E8007A00006400937A0081E05AD000917A0087
:1000F80006FD0C947800609179006993699369937F
:10010800699300917C00007F056000937C0000915A
:100118007A00006400937A0081E042D000917A006E
:1001280006FD0C9490006091790069936993699336
:100138006883D2E0C7E211E000E00C94AA00110F36
:100148000C94AA0010E004E001C0000F50E040E069
:1001580030E06881660F660F660F660F660F660FE0
:10016800562B502B688166956695362B412B35B9F1
:1001780048B95BB98FEF14D042D030E040E050E08E
:1001880035B948B95BB981E00BD0C03211F40C9491
:100198006B00C1500430C8F61830A0F60C94A300C8
:1001A80070E07F5F7817E9F70895D2E0C0E308812F
:1001B8001A0D103031F0113071F0123061F0133037
:1001C800A1F010EF10232FE020232F5F273069F4D0
:1001D80020E00C94F90010EF10232FE02023215089
:1001E8002F3F19F427E00C94F900120F292D1883DA
:1001F80008811993102F21502030D1F70895D2E0AB
:10020800C0E360E0B2E0A0E208811FE01023069599
:10021800069506950695A10F202F01E02150110F94
:100228002030E1F70C91102B0C936F5FCF5F6915AD
:0C02380049F708950F2D0F5FF02E189568
:00000001FF
